:1000000080C000009DC000009BC0000099C000009F
:1000100097C0000095C0000093C0000091C0000090
:100020008FC000008DC000008BC0000089C00000A0
:1000300087C0000085C0000083C0000081C00000B0
:100040007FC000007DC000007BC0000079C00000C0
:1000500077C0000075C0000073C0000071C00000D0
:100060006FC00000C1C100006BC0000069C000008B
:1000700067C0000065C0000063C0000061C00000F0
:100080005FC000005DC000005BC0000059C0000000
:10009000BBC1000055C0000053C0000051C00000AB
:1000A0004FC000004DC000004BC0000049C0000020
:1000B00047C0000045C0000043C0000041C0000030
:1000C0003FC000003DC000003BC00000ADC10000CB
:1000D00037C0000035C00000B7C1000031C00000CB
:1000E0002FC0000005A84CCDB2D44EB93836A902B5
:1000F0000C50B9918688083CA6AAAA2ABE00000026
:10010000803F11241FBECFEFD1E2DEBFCDBF00E0A4
:100110000CBF12E0A0E0B2E0EAE1FCE000E00BBFBF
:1001200002C007900D92A432B107D9F722E0A4E2F1
:10013000B2E001C01D92A233B207E1F702D06BC555
:100140005FCFCF93DF93CDB7DEB7A7970FB6F89405
:10015000DEBF0FBECDBF7894CE010196B2D1CE01E5
:10016000019605D2CE01019655D2CE010196CAD292
:10017000F6CFFC0180818130F1F4E7E0F1E080818D
:1001800082608083808181608083EAE0F1E0808109
:1001900080628083E0E2F1E080818A608083E1E236
:1001A000F1E080818A61808389EF90E0909327015C
:1001B0008093260108958230F1F4E7E0F1E0808138
:1001C00084608083808188608083EAE0F1E08081C0
:1001D00088608083E0E2F1E0808182688083E1E2F0
:1001E000F1E080818A61808389EF90E0909327011C
:1001F0008093260108958330E9F4E7E0F1E08081FF
:1002000080628083808180618083EAE0F1E0808188
:1002100080618083E0E2F1E0808182628083E1E2BC
:10022000F1E080818A61808389EF90E090932701DB
:10023000809326010895FC018081823069F083302B
:10024000A1F08130D1F4E8E0F1E080818260808328
:1002500080818E7F80830895E8E0F1E08081846072
:1002600080838081877F80830895E8E0F1E080814A
:100270008062808380818F7E80830895FC018081ED
:10028000823069F08330A1F08130D1F4E8E0F1E010
:1002900080818D7F80838081816080830895E8E004
:1002A000F1E080818B7F80838081886080830895E6
:1002B000E8E0F1E080818F7D8083808180618083B0
:1002C0000895FC018081823089F08330E1F0813033
:1002D00031F5E8E0F1E080818D7F808380818E7F41
:1002E000808310922D0110922C010895E8E0F1E036
:1002F00080818B7F80838081877F8083109229011A
:10030000109228010895E8E0F1E080818F7D8083DC
:1003100080818F7E808310922B0110922A01089594
:100320000F931F93CF93DF938C01EB011C161D06D7
:100330000CF481DFC93FD10544F4DD2344F4D195A9
:10034000C195D109C8019ADF02C0C9EFD0E0F80118
:100350008081823049F0833061F0813071F4D09334
:100360002D01C0932C0109C0D0932901C09328010D
:1003700004C0D0932B01C0932A01DF91CF911F912C
:100380000F910895CF93DF93EC016883F2DECE01E5
:1003900098DF60E070E0CE01C3DFDF91CF91089578
:1003A0001092C50087E68093C40088E98093C1005D
:1003B00086E08093C200089510922502E6E2F2E002
:1003C0001182108213821282158214821782168281
:1003D0001092350187E68093340188E980933101DA
:1003E00086E08093320108951F920F920FB60F920C
:1003F00011248F938091C600809331028F910F90CA
:100400000FBE0F901F9018951F920F920FB60F926C
:1004100011248F938091CE00809330028F910F90A2
:100420000FBE0F901F9018951F920F920FB60F924C
:1004300011248F938091D60080932F028F910F907B
:100440000FBE0F901F9018951F920F920FB60F922C
:1004500011240BB60F922F933F938F939F93EF939B
:10046000FF938091360180932E029091240299236C
:10047000B1F090912502E92FF0E0EE0FFF1FEA5D49
:10048000FD4F282F30E0318320839F5F943018F494
:100490009093250204C010922502109224028F37F7
:1004A00019F481E080932402FF91EF919F918F9145
:1004B0003F912F910F900BBE0F900FBE0F901F908A
:1004C0001895CF93DF93EC0178946ADF75DF88ECA1
:1004D00090E09D878C87FE01CE010C9616861786CC
:1004E000108A118A1192119211921192E817F9074C
:1004F000A9F761E0CE01809645DF62E0CE018196EA
:1005000041DF63E0CE0182963DDFDF91CF91089518
:10051000E6E2F2E0408151812281338142175307A4
:1005200034F0240F351FFC0134A323A308C0240F8B
:10053000351F319521953109FC0134A323A3E6E24F
:10054000F2E044815581268137814217530734F008
:10055000240F351FFC0136A325A30895240F351F52
:10056000319521953109FC0136A325A308958F9279
:100570009F92AF92BF92CF92DF92EF92FF920F9332
:100580001F93CF93DF938C0180912402811102C0CD
:10059000C801BEDFF801C485D58563A174A1072E0B
:1005A000000C880B990BC5D16B017C0124D14B0148
:1005B0005C01BE010D2E000C880B990BBAD1A50170
:1005C00094017CD2F8016483758386839783C70185
:1005D000B601D7D26B017C01662777276C1B7D0B98
:1005E000072E000C880B990BA4D1A701960166D2A7
:1005F000F8016083718382839383DF91CF911F9190
:100600000F91FF90EF90DF90CF90BF90AF909F90B1
:100610008F9008954F925F926F927F928F929F92E8
:10062000AF92BF92CF92DF92EF92FF920F931F9300
:10063000CF93DF933C01482E572C0F2EF0E08F2EE6
:10064000F2E09F2EF02D5C018CE0A80EB11C63013E
:100650007601F60116861786108A118A8401C42D48
:10066000D52D6991799189919991F80121913191D3
:10067000419151918F0122D29B01AC01F701668516
:1006800077858089918953D0F70166877787808B3A
:10069000918BCA15DB0529F7F4E0CF0ED11C8CE055
:1006A000880E911CCA14DB0499F6E3012E96EAE148
:1006B0006E0E711C8301699179918991999120E065
:1006C00030E049E753E4FAD120E030E048EC53E46D
:1006D00095D0FCD0F801619371938F01C615D705B1
:1006E00051F7DF91CF911F910F91FF90EF90DF9025
:1006F000CF90BF90AF909F908F907F906F905F90C2
:100700004F900895CF93DF93EC016A8D7B8D809697
:1007100007DE6C8D7D8DCE01819602DE6E8D7F8D24
:10072000CE018296FDDDDF91CF9108955058BB2711
:10073000AA270ED078C141D130F046D120F031F453
:100740009F3F11F41EF436C10EF4E095E7FB2CC177
:10075000E92F8BD180F3BA176207730784079507D7
:1007600018F071F49EF5A3C10EF4E0950B2EBA2F8C
:10077000A02D0B01B90190010C01CA01A0011124A7
:10078000FF27591B99F0593F50F4503E68F11A1653
:10079000F040A22F232F342F4427585FF3CF4695E4
:1007A00037952795A795F0405395C9F77EF41F1606
:1007B000BA0B620B730B840BBAF09150A1F0FF0FD0
:1007C000BB1F661F771F881FC2F70EC0BA0F621FBC
:1007D000731F841F48F4879577956795B795F795AC
:1007E0009E3F08F0B3CF9395880F08F09927EE0F3E
:1007F000979587950895F0D0E39526C10CD013C145
:10080000E3D040F0DAD030F021F45F3F19F0CCC0F3
:1008100051114EC1CFC029D198F39923C9F3552363
:10082000B1F3951B550BBB27AA27621773078407E3
:1008300038F09F5F5F4F220F331F441FAA1FA9F399
:1008400033D00E2E3AF0E0E830D091505040E6958B
:10085000001CCAF729D0FE2F27D0660F771F881FEC
:10086000BB1F261737074807AB07B0E809F0BB0BDB
:10087000802DBF01FF2793585F4F2AF09E3F5105FF
:1008800068F092C015C15F3FECF3983EDCF38695AB
:1008900077956795B795F7959F5FC9F7880F911D75
:1008A0009695879597F90895E1E0660F771F881F61
:1008B000BB1F621773078407BA0720F0621B730B14
:1008C000840BBA0BEE1F88F7E095089504D0689466
:1008D000B111EEC00895D1D088F09F5790F0B92F94
:1008E0009927B751A0F0D1F0660F771F881F991F85
:1008F0001AF0BA95C9F712C0B13081F0D8D0B1E082
:100900000895D5C0672F782F8827B85F39F0B93F91
:10091000CCF3869577956795B395D9F73EF4909586
:100920008095709561957F4F8F4F9F4F0895E89404
:1009300009C097FB3EF490958095709561957F4F27
:100940008F4F9F4F9923A9F0F92F96E9BB279395D5
:10095000F695879577956795B795F111F8CFFAF4E5
:10096000BB0F11F460FF1BC06F5F7F4F8F4F9F4F16
:1009700016C0882311F096E911C0772321F09EE874
:10098000872F762F05C0662371F096E8862F70E0DA
:1009900060E02AF09A95660F771F881FDAF7880FB4
:1009A0009695879597F9089597F99F6780E870E085
:1009B00060E008959FEF80EC089500240A941616D5
:1009C000170618060906089500240A94121613063D
:1009D000140605060895EECF50D0E8F3E894E0E061
:1009E000BB279F57F0F02AED3FE049EC06C0EE0F21
:1009F000BB0F661F771F881F28F0B23A6207730784
:100A0000840728F0B25A620B730B840BE3959A9516
:100A100072F7803830F49A95BB0F661F771F881FD6
:100A2000D2F79048B6C0092E0394000C11F4882325
:100A300052F0BB0F40F4BF2B11F460FF04C06F5F96
:100A40007F4F8F4F9F4F0895EF93E0FF06C0A2EABC
:100A50002AED3FE049EC5FEB7BDEE5DF0F9003948E
:100A600001FC9058E4EEF0E0A0C057FD9058440F10
:100A7000551F59F05F3F71F04795880F97FB991FFD
:100A800061F09F3F79F087950895121613061406BA
:100A9000551FF2CF4695F1DF08C016161706180647
:100AA000991FF1CF86957105610508940895E89422
:100AB000BB2766277727CB0197F908950BD0B3CFD3
:100AC0007CDF28F081DF18F0952309F06DCF72CF1D
:100AD0001124EECFCADFA0F3959FD1F3950F50E01C
:100AE000551F629FF001729FBB27F00DB11D639FE0
:100AF000AA27F00DB11DAA1F649F6627B00DA11D86
:100B0000661F829F2227B00DA11D621F739FB00D2B
:100B1000A11D621F839FA00D611D221F749F33279B
:100B2000A00D611D231F849F600D211D822F762F34
:100B30006A2F11249F5750408AF0E1F088234AF031
:100B4000EE0FFF1FBB1F661F771F881F915050407D
:100B5000A9F79E3F510570F027CFAACF5F3FECF376
:100B6000983EDCF3869577956795B795F795E79569
:100B70009F5FC1F7FE2B880F911D9695879597F97A
:100B800008959F9329DF0F9007FCEE5F5DCF9F3F95
:100B900031F0915020F4879577956795B795880F38
:100BA000911D9695879597F908959F938F937F93BD
:100BB0006F93FF93EF939B01AC0180DFEF91FF9167
:100BC00005D02F913F914F915F9178CFDF93CF93D5
:100BD0001F930F93FF92EF92DF927B018C01689439
:100BE00005C0DA2EEF0176DFFE01E894A59125918C
:100BF000359145915591AEF3EF01AADDFE019701C4
:100C0000A801DA9479F7DF90EF90FF900F911F9190
:0A0C1000CF91DF910895F894FFCF13
:100C1A00DAAC2ABF000000004CA6AA3E4CA6AA3EA7
:100C2A007DD013BF4CA6AA3E4CA6AA3E7DD0133F48
:040C3A004CA6AA3EDC
:00000001FF
